:100000006F00100B00000000F2010000F40100007E
:1000100000000000000000000000000000000000E0
:1000200000000000000000000000000000000000D0
:10003000AE08000000000000AE0800000000000054
:10004000AE080000AE080000AE080000AE080000D8
:10005000AE080000AE080000AE080000AE080000C8
:10006000AE080000AE080000AE080000AE080000B8
:10007000AE080000AE080000AE080000AE080000A8
:10008000AE080000AE080000AE080000AE08000098
:10009000AE080000AE080000AE080000000000003E
:1000A000511126C022C206C4828282441244A24058
:1000B000310182802A86014593F6150091C232955E
:1000C00085810606F5F9828000000000634E050276
:1000D00063C305042E86AA857D5515C285466378BF
:1000E000B6006356C00006068606E36CB6FE014500
:1000F00063E4C500918D558D85820582F5FA828075
:100100008682C93F2E8582823305A04063D70500D1
:10011000B305B040C1B7B305B0408682653F330533
:10012000A0408282868263C70500634905005D376F
:100130002E858282B305B040E35B05FE3305A04007
:10014000513F3305B040828200003D432A876373EC
:10015000C3029377F700BDEFADE5937606FF3D8AC6
:10016000BA960CC34CC30CC74CC74107E36BD7FE10
:1001700011E28280B306C3408A0697020000969679
:100180006780A6002307B700A306B7002306B700C1
:10019000A305B7002305B700A304B7002304B700E5
:1001A000A303B7002303B700A302B7002302B700DD
:1001B000A301B7002301B700A300B7002300B700D5
:1001C000828093F5F50F93968500D58D9396050162
:1001D000D58D61B793962700970200009696868288
:1001E000E78086FA9680C1171D8F3E96E374C3F8A8
:1001F000A5B701A0B707EFBE37E700E09387070870
:100200003CC701A09377F50F21817D151375F50F7C
:1002100011476369A7000567130707AC0A053A95FC
:10022000184102877D5798A11CA223800600828076
:1002300093C7F7FF9CA1FD57C5BF238005007D57DD
:1002400018A29CA282802380050093C7F7FF1CA2FE
:10025000FD57C5BF9CA123000600DDBF7D5798A1B7
:100260002300060093C7F7FFE9BFEFF27FE33704EF
:100270000020130404000840B76519009385D56079
:10028000153DB7F76E3C9387F7353E9508C0618101
:1002900029BDEFF2FFE02111D1452D3D2AC0814457
:1002A000014482476394F400610101B5A282814751
:1002B00016859305006016C63EC8AD354205130687
:1002C000610193067101930551014181253F034569
:1002D00071019305F00F1A05D53B9376F50F034591
:1002E00061019305F00F36C41A05CD331376F50F6F
:1002F000034551019305F00F32C21A05C13BC247B5
:100300001246A2469375F50F3E853EC209239247D9
:10031000B2421547850793F7F70F93823213E3999B
:10032000E7F8154521239305006013058400DD3BA4
:100330001314050151454180EF00C074850495B741
:10034000EFF21FD65111AE841A059305F00F32C299
:100350003684AD3B9377F50F9305F00F139564004A
:100360003EC0AD3312469374F50F9305F00F13158D
:100370006600A93B1373F50F814782453E859A8637
:1003800026861AC43EC2612115454D212285EF0003
:10039000606F924715472243850793F7F70FE39E57
:1003A000E7FC1305C012EF00E06D81448146014671
:1003B00081452685A929154595292285EF00806C60
:1003C000850493F4F40F9547E392F4FE1305800C33
:1003D000EF00406B3101D1B9EFF29FCC31112E8487
:1003E000AA8493050005368532C2ED312AC09305F3
:1003F000F00F13956400D9399377F50F9305F00F3B
:10040000131564003EC8D93112469377F50F930552
:10041000F00F131566003EC655399377F50F3EC4AD
:10042000014482476314F400510141B18D45228596
:10043000C1399377F50F3EC281448D452685C93178
:1004400092471375F50F6315F502A2463246C24571
:100450002685752E9387140093F4F70F1547E39EB6
:10046000E4FC1545E12613050005292D050455BFBB
:10047000814601468145E9BFEFF29FC2130181FC2D
:10048000F94502D02302010202D42306010202D858
:10049000230A010281312AC402C0824722476395A0
:1004A000E7001301810311B1C9339307F00463E23C
:1004B000A706653B2A84553B931715003E95060514
:1004C00042059306F1011306E10141819305D10133
:1004D000153B954522852D313C181375F50F338456
:1004E000A7000345D1019305F00F1A05C536230473
:1004F000A4FE0345E1019305F00F1A05C13E230850
:10050000A4FE0345F1019305F00F1A05C136230C33
:10051000A4FE1C102410014483C307003ECC1C1809
:10052000A29703C3070083C204009E859A8616869D
:100530001375F40F3EC21ACA16C81EC6C92CB243A0
:100540002147C2429E865243E24763F3E300A1463D
:10055000E11694A3968663F3E200A146E11694A007
:100560009A866373E300A1461246E116050414A2BD
:10057000954685078504E311D4FA1545452C794540
:100580001123824785073EC009BFEFF27FB10545C1
:100590008129592A492191241545DD2C056413052B
:1005A00004FAC53993068007014681451305F00F0B
:1005B000413B9306800701469305F00F01454933FF
:1005C000930680071306F00F81450145953B93067E
:1005D00084BB0146930540061305F00FF53B9306D7
:1005E00084BB1306F00F930540060145F533130550
:1005F0008438593565B7EFF2BFAA371402401C4062
:100600003707FFF8611193E717001CC05C404145B4
:10061000F98F5CC01C403707F7FE7D17F98F1CC0AF
:100620001C403707FCFF7D17F98F1CC05C404177E9
:100630007D17F98F5CC0B7079F001CC46D261C4C4A
:100640003706020093E707021CCCB717014003A747
:100650000740938607401377F7F023A0E74003A7EE
:1006600007401367070823A0E74089479CCA02C0D8
:1006700002C21C4C37070140A16693E717001CCC4F
:100680005C43D58F5CC31C404167B7160240D98FCD
:100690001CC009679C42F18F3EC2824785073EC05D
:1006A000924781E78247E397E7FEB71702409C43F2
:1006B0001397E7006358070685473EC212478547F0
:1006C0006310F706B72702409843C176FD16719B69
:1006D00098C398431367170098C3B7170240D843CD
:1006E000D8C3D843758FD8C3D843C166558FD8C3F4
:1006F0009843B7060001558F98C398439316670037
:10070000E3DD06FED843B7160240719BD8C3D84339
:1007100013672700D8C32147DC42B18BE39EE7FE75
:10072000210161B202C259BFEFF29F973717024011
:100730005C43370400209146B18B13044401638568
:10074000D700A1466382D704B7376E01938707604D
:100750001CC0B7160240DC420840918313F7F70033
:10076000B707002093874700BA978C23DC4293F5A4
:10077000F50F93F707083357B50081E7EFF09F9522
:100780002A8718C06FF07F925C43B777DC029387AB
:1007900007C07DBFA1470947B7160140137605087A
:1007A00098CA19EAD8CA010001000100010001003D
:1007B00001000100010031A8010001000100010059
:1007C0000100010001000100010001000100010021
:1007D000D8CA0605FD17F9F38280EFF27F8C51111C
:1007E0008545414502C002C202C4392489477C8044
:1007F000C1473EC48A858D47371501403EC28D22D0
:10080000894537150140D92A31016FF01F8A9D476C
:1008100063EDA70093171500AA973705002013056D
:1008200085013E9510A10CB134A18280EFF25F8763
:1008300021477111A1476364A7009377F50F130750
:100840008008733007300F100000370400201304B5
:10085000840181446390F4029307800873A00730F9
:100860008945371501409D2A1305C003F92A110156
:100870006FF0BF8308203EC08504293F083093F401
:10088000F40F0D04013F0345F4FF29378247D9B720
:10089000EFF21F812A843705002061468145130548
:1008A0008501EFF09F8A228551376FF01F8001A0EC
:1008B00097010020938181F6138181FE1305000AC0
:1008C00097F5FF1F9385057417F6FF1F13068673B0
:1008D00063FAC5008322050023A055001105910588
:1008E000E3EAC5FE170500001305051F97F5FF1F76
:1008F0009385457117F6FF1F1306467263FAC5000C
:100900008322050023A0550011059105E3EAC5FEE9
:1009100017F5FF1F13058570938501826377B50076
:10092000232005001105E36DB5FEB7220000938278
:100930000288739002308D427390428097F2FFFFDD
:100940009382426C93E2320073905230EFF0BFCA50
:10095000970200009382A2C3739012347300203078
:10096000944593F7060193F2F60081C7DC41B3E2A8
:10097000F20083D3050093F7F30FA5C3032305000B
:10098000611122C226C081471304800293048004AF
:1009900005473316F70033F7C3006312E602939559
:1009A00027003D473317B7001347F7FF337367003E
:1009B000B395B20033E36500639D860050C9850797
:1009C0002147E397E7FC124423206500824421017C
:1009D0008280E39696FE10C9DDB782804CC9828082
:1009E00023ACA1808280371702401C430E0593F789
:1009F00077F05D8D08C3828099C5371702401C4F80
:100A00005D8D08CF8280B7170240984F1345F5FFE0
:100A1000798D88CF8280EFF2AFE8B707002003A579
:100A20004701B7157A0093850520EFF0AFEA1375FB
:100A3000F50F238FA18093175500898F8A073E9564
:100A40000E05239EA1806FF04FE6EFF26FE537F4BD
:100A500000E05C40AA85F99B5CC003C5E181EFF032
:100A60006FE508C8232404001C4093E717001CC04E
:100A7000B7F700E0D843058B75DF9843799B98C39F
:100A80006FF0AFE2EFF2CFE137F400E05C40AA850F
:100A9000F99B5CC003D5C181EFF0CFE108C82324E6
:100AA00004001C4093E717001CC0B7F700E0D843D0
:100AB000058B75DF9843799B98C36FF00FDF0000BB
:100AC000300200003A02000046020000540200001A
:040AD0005C020000C4
:100AD400EFBEADDE010203040506070801020304AC
:080AE40005060708006CDC02A6
:00000001FF
